:060000000A128A110C280F
:10000800FE00030EF0000A08F1000A168A11EE2D10
:100018000A128A110F288313C230FD001430FE0023
:10002800D730FF00A03084000A168A1179240A12FA
:100038008A110A168A114C240A128A11EB000A1630
:100048008A114D240A128A11EC000A168A114E24CC
:100058000A128A11F9000A168A114F240A128A1103
:10006800FA0083160313C201C301C401C501C60106
:10007800C701C801C901CA01CB0183120313E301F7
:10008800E401E501E601E701E801E901EA01FB0114
:1000980083010A128A154C2C83120313DE000A16F8
:1000A8008A116A270A128A113330831203136B06E6
:1000B800031D5F286028312A0A168A1164240A124F
:1000C8008A11443083120313A0009130A1008030BC
:1000D800A2000A168A116B250A128A1183120313C9
:1000E8006808D8005807A03E840083130008A000C1
:1000F800840A00088403A1008630A2000A168A1127
:100108006B250A128A113E3083120313A000913026
:10011800A100C030A2000A168A116B250A128A11A2
:10012800C630F8000A30F2000030F30083120313DF
:100138006908D800D9015808F4005908F5000A16CA
:100148008A1196260A128A117208303E0A168A11F6
:1001580088240A128A11C730F8000A30F2000030E9
:10016800F300831203136908D800D9015808F40072
:100178005908F5000A128A1507200A128A1172080E
:10018800303E0A168A1188240A128A11C830F800EB
:100198003A300A168A1188240A128A11C930F800DE
:1001A8000A30F2000030F300831203136A08D80003
:1001B800D9015808F4005908F5000A168A1196263C
:1001C8000A128A117208303E0A168A1188240A1205
:1001D8008A11CA30F8000A30F2000030F3008312A6
:1001E80003136A08D800D9015808F4005908F50023
:1001F8000A128A1507200A128A117208303E0A1656
:100208008A1188240A128A11FF3083120313EB0023
:10021800333083120313DA00BB30D900DF30D80043
:10022800D80B1429D90B1429DA0B14290A168A11A8
:1002380064240A128A11DE3083120313A00090305E
:10024800A1008030A2000A168A116B250A128A11B1
:100258005C3083120313A0009130A100C030A200CB
:100268000A168A116B250A128A1124308312031385
:10027800A0009030A1009030A2000A168A116B25C8
:100288000A128A11831203136908D800D901580881
:10029800F2005908F3003C30F4000030F5000A166B
:1002A8008A111D250A128A11831203136A0872071C
:1002B800E3000030031801307307E4006408E60027
:1002C8006308E5006508F2006608F3000030F31BD8
:1002D800FF30F400F50001300A128A15A1210A1234
:1002E8008A11750883120313B1007408B0007308EB
:1002F800AF007208AE003E30AD00D730AC000A3017
:10030800AB003D30AA000A128A1136240A128A115B
:10031800831203132D08C7002C08C6002B08C5003C
:100328002A08C4000A128A1178270A128A1183122D
:100338000313450883160313CB00831203134408E1
:1003480083160313CA00831203136508F2006608B4
:10035800F3000030F31BFF30F400F50001300A12FF
:100368008A15A1210A128A11750883120313B10094
:100378007408B0007308AF007208AE003D30AD00DD
:10038800F530AC00C230AB008F30AA000A128A11D7
:1003980036240A128A11831203132D08C7002C0869
:1003A800C6002B08C5002A08C4000A128A1178273B
:1003B8000A128A1183120313450883160313C9000E
:1003C80083120313440883160313C800831203130C
:1003D8006508F2006608F3000030F31BFF30F400F4
:1003E800F50001300A128A15A1210A128A1175082E
:1003F80083120313B1007408B0007308AF007208C9
:10040800AE003E30AD00D730AC000A30AB003D3016
:10041800AA000A128A1136240A128A1183120313B7
:100428002D08C7002C08C6002B08C5002A08C400E0
:100438000A128A1178270A128A11831203134508AF
:1004480083160313C7008312031344088316031388
:10045800C60083120313121507151F305E06031D0D
:10046800362A372A3B2A121107114430EC00690852
:10047800D800D9015808F2005908F3003C30F400BC
:100488000030F5000A168A111D250A128A118312F6
:1004980003136A087207E500003003180130730778
:1004A800E6000830680203185A2A5B2ACA2A83160B
:1004B80003134A08831203136302D8008316031335
:1004C8004B08031C4B0A831203136402D900590812
:1004D8006602031D712A58086502031C742A752ACE
:1004E800812A6630A0009130A1008A30A2000A1645
:1004F8008A116B250A128A117A2B831603134A096B
:1005080083120313D800831603134B0983120313B2
:10051800D900D80A0319D90A831603134608831287
:1005280003135802DA00831603134708031C470A0B
:10053800831203135902DB0063085A07DC006408BE
:100548000318640A5B07DD005D086602031DAE2A16
:100558005C086502031CB12AB22ABE2A4A30A000F0
:100568009130A1008A30A2000A168A116B250A125E
:100578008A117A2B3830A0009130A1008A30A2006D
:100588000A168A116B250A128A117A2B0830680616
:10059800031DCF2AD02A5D2B6508F2006608F300F8
:1005A800F401F50100300A128A15A1210A128A11F4
:1005B800750883120313CF007408CE007308CD00AA
:1005C8007208CC006308F2006408F300F401F50136
:1005D80000300A128A15A1210A128A11750883129D
:1005E8000313CB007408CA007308C9007208C80056
:1005F8006308F2006408F300F401F50100300A1200
:100608008A15A1210A128A11750883120313B100F1
:100618007408B0007308AF007208AE003E30AD0039
:10062800CC30AC00CC30AB00CD30AA000A128A1115
:1006380036240A128A11831203132D08C7002C08C6
:10064800C6002B08C5002A08C4000A168A11F92416
:100658000A128A11831203134708D3004608D200EE
:100668004508D1004408D0000A128A15FD200A1254
:100678008A11031C402B412B4F2B4A308312031342
:10068800A0009130A1008A30A2000A168A116B25B9
:100698000A128A117A2B383083120313A000913082
:1006A800A1008A30A2000A168A116B250A128A1143
:1006B8007A2B09306806031D622B632B6F2B3830A9
:1006C800A0009130A1008A30A2000A168A116B2579
:1006D8000A128A117A2BC330A0009030A100803012
:1006E800A2000A168A116B250A128A11C630F80070
:1006F8000A30F2000030F300831203136908D800AF
:10070800D9015808F4005908F5000A168A119626E6
:100718000A128A117208303E0A168A1188240A12AF
:100728008A11C730F8000A30F2000030F300831253
:1007380003136908D800D9015808F4005908F500CE
:100748000A128A1507200A128A117208303E0A1600
:100758008A1188240A128A11C830F8003A300A1619
:100768008A1188240A128A11C930F8000A30F20066
:100778000030F300831203136A08D800D90158081F
:10078800F4005908F5000A168A1196260A128A11E9
:100798007208303E0A168A1188240A128A11CA3051
:1007A800F8000A30F2000030F300831203136A08DD
:1007B800D800D9015808F4005908F5000A128A151A
:1007C80007200A128A117208303E0A168A118824F4
:1007D8000A128A11831203136908031DF42BF52BDF
:1007E800352C6A08031DF92BFA2B352C0A168A11A9
:1007F80064240A128A118312031307118714003024
:10080800A0009030A1008030A2000A168A116B2542
:100818000A128A11633083120313A0009030A100DA
:10082800C030A2000A168A116B250A128A113330C9
:1008380083120313DA00BB30D900DF30D800D80B9D
:10084800232CD90B232CDA0B232C831203138710A8
:100858000130EC001130EB000A168A1164240A12E8
:100868008A110800831203132D08B7008030B705DA
:100878002D08B2003207BD00AC1F432C442C452C78
:100888003D143D080319492C4A2C592C3D0A031DD7
:100898004E2C4F2C572C0030AD000030AC000030EF
:1008A800AB000030AA00AC17612C0030AD0000305E
:1008B800AC000030AB000030AA0031088039B70620
:1008C8003108B2003207B800B01F6B2C6C2C6D2CAD
:1008D800381438080319712C722C812C380A031D1E
:1008E800762C772C7F2C0030B1000030B00000301F
:1008F800AF000030AE00B017892C0030B1000030D6
:10090800B0000030AF000030AE00380803198D2C5D
:100918008E2C932C3D08031D922C932C9C2C00307C
:10092800AD000030AC000030AB000030AA00772FDB
:100938002A08F20030080A168A1142250A128A117A
:10094800730883120313C3007208C2004208B2007E
:10095800B301B401B5013508BC003408BB00330845
:10096800BA003208B9004308B200B301B401B501B6
:100978003508C1003408C0003308BF003208BE0083
:100988002B08F2002F080A168A1142250A128A112A
:10099800730883120313C3007208C2004208B2002E
:1009A800B301B401B5013208B907330803110318BC
:1009B800013E0319E02CBA07340803110318013E5D
:1009C8000319E72CBB07350803110318013E031967
:1009D800EE2CBC074308B200B301B401B5013208DC
:1009E800BE07330803110318013E0319FC2CBF0787
:1009F800340803110318013E0319032DC0073508F5
:100A080003110318013E03190A2DC1072C08F2002F
:100A18002E080A168A1142250A128A1173088312AF
:100A28000313C3007208C2004208B200B301B40144
:100A3800B5013208B907330803110318013E031939
:100A4800262DBA07340803110318013E03192D2D6A
:100A5800BB07350803110318013E0319342DBC07E1
:100A68004308B200B301B401B5013208BE07330828
:100A780003110318013E0319422DBF07340803115F
:100A88000318013E0319492DC0073508031103183F
:100A9800013E0319502DC1070830B2000310B90DEB
:100AA800BA0DBB0DBC0DB20B522D2B08F2002E084F
:100AB8000A168A1142250A128A117308831203132F
:100AC800C3007208C2004208B2004308B300B40170
:100AD800B5013208B907330803110318013E031999
:100AE800762DBA07340803110318013E03197D2D2A
:100AF800BB07350803110318013E0319842DBC07F1
:100B08002A08F2002F080A168A1142250A128A11A9
:100B1800730883120313C3007208C2004208B200AC
:100B28004308B300B401B5013208B907330803110B
:100B38000318013E0319A12DBA073408031103183D
:100B4800013E0319A82DBB07350803110318013E00
:100B58000319AF2DBC070830B2000310B90DBA0D48
:100B6800BB0DBC0DB20BB12D2A08F2002E080A16D7
:100B78008A1142250A128A11730883120313C300CB
:100B88007208C2004208B2004308B300B401B501BC
:100B98003208B907330803110318013E0319D52D8C
:100BA800BA07340803110318013E0319DC2DBB07EB
:100BB800350803110318013E0319E32DBC072B0860
:100BC800F20030080A168A1142250A128A1173089F
:100BD80083120313C3007208C2004208B20043081C
:100BE800B300B401B5013208BE0733080311031876
:100BF800013E0319002EBF07340803110318013EF4
:100C08000319072EC007350803110318013E0319FD
:100C18000E2EC1072C08F2002F080A168A11422549
:100C28000A128A11730883120313C3007208C200E0
:100C38004208B2004308B300B401B5013208BE0748
:100C4800330803110318013E03192B2EBF0734087C
:100C580003110318013E0319322EC007350803118A
:100C68000318013E0319392EC1072C08F200300879
:100C78000A168A1142250A128A117308831203136D
:100C8800C3007208C2004208B2004308B300B401AE
:100C9800B50108300310B20DB30DB40DB50DFF3E0C
:100CA800031D4E2E3208BE07330803110318013EF8
:100CB80003195F2EBF07340803110318013E0319F7
:100CC800662EC007350803110318013E03196D2E5F
:100CD800C1073908B2003A08B3003B08B4003C0821
:100CE800B50018300310B50CB40CB30CB20CFF3EB1
:100CF800031D762E3208BE07330803110318013E80
:100D08000319872EBF07340803110318013E03197E
:100D18008E2EC007350803110318013E0319952EBE
:100D2800C1070830B2000310B90DBA0DBB0DBC0DD8
:100D3800B20B972E3D083807B200B301B30D320845
:100D4800823EC20033080318013EFF3EC300C92E8D
:100D58000130B2000310BE0DBF0DC00DC10DB20BA6
:100D6800AE2EBC1FB82EB92EBA2E3E140130B200DA
:100D78000310B90DBA0DBB0DBC0DB20BBC2EFF3064
:100D8800C2070318C30AFF30C307C01FCC2ECD2EDD
:100D9800AC2EB801BC1FD12ED22EEE2EFF30390555
:100DA800B200FF303A05B300FF303B05B4007F3096
:100DB8003C05B50035083404330432040319E52E24
:100DC800E62EE92E0130B800EE2E3E1CEC2EED2E5C
:100DD800EE2EE62E38080319F22EF32E242F0130BA
:100DE800BE07003003180130BF0700300318013078
:100DF800C007003003180130C107411C042F052F1C
:100E0800242F3E08B2003F08B3004008B400410850
:100E1800B5000130B600350DB50CB40CB30CB20CEE
:100E2800B60B0F2F3508C1003408C0003308BF00C7
:100E38003208BE000130C2070318C30A0030C307D6
:100E48004308803AFF0080307F02031D2D2FFF30BA
:100E58004202031C302F312F3C2F7F3083120313A3
:100E6800C1008030C0000030BF000030BE006D2FD0
:100E7800831203134308803AFF0080307F02031D6A
:100E8800472F0130420203184A2F4B2F572F0030AB
:100E980083120313C1000030C0000030BF000030CF
:100EA800BE00B7016D2F831203134208BD00FF3047
:100EB800BE05FF30BF057F30C0050030C1053D1CB1
:100EC800662F672F682FC0173D08B2000310320C39
:100ED800C1003708C1044108AD004008AC003F0814
:100EE800AB003E08AA000800031083120313460D46
:100EF800470DF7007708031D822F832F8C2F0030B2
:100F0800C7000030C6000030C5000030C400ED2F17
:100F18004408C8004508C9004608CA004708CB006D
:100F28001F300310CB0CCA0CC90CC80CFF3E031DA4
:100F3800952F4808F600C617FF30C405FF30C505D1
:100F4800FF30C6050030C7059630F702F71FAD2FF2
:100F5800AE2FC62F7708803A973E0318B42FB52FC7
:100F6800B62F832F01300310C70CC60CC50CC40C58
:100F7800FF3E031DB72F0130F707031DC42FC52FF0
:100F8800B62FDD2F20307702031CCB2FCC2FD82F84
:100F9800832F0130C8000310C40DC50DC60DC70D41
:100FA800C80BCF2F0130F7027708031DDC2FDD2F88
:100FB800CD2F76080319E12FE22FED2FC409C509BB
:100FC800C609C709C40A0319C50A0319C60A0319B9
:100FD800C70A0800FF1BF82F83137F188317000820
:100FE800840A0319FF0A08007F087F398A00040869
:080FF800840A0319FF0A8200BC
:101002008316031306083F3886000800F701F51F10
:101012000B280C281328F409F509F40A0319F50A18
:101022000130F700F31F162817281C28F209F309CC
:10103200F20A0319F30A72087304031921282228F9
:101042004F280130F6002E2801300310F20DF30D67
:10105200FF3E031D26280130F607F31F31283228F0
:10106200252873087502031D382872087402031CB0
:101072003B283C2842287208F4027308031CF5033B
:10108200F50201300310F30CF20CFF3E031D43285E
:101092000130F602031D4E284F2832287708031923
:1010A200532854285928F409F509F40A0319F50AB2
:1010B2007508F3007408F200080083120313A700F6
:1010C20022306B06031D6628672870280A168A11CB
:1010D20064240A128A15FF3083120313EB0037309F
:1010E2002706031D7528762886280A168A11642485
:1010F2000A128A15013083120313E70705306706C7
:10110200031D842885288628E7018030A0009030BE
:10111200A1008030A2000A168A116B250A128A15D4
:10112200C030F8002A300A168A1188240A128A1559
:10113200831203136708A5002507B83E84008313B2
:101142000008A000840A00088403A100C230A200A3
:101152000A168A116B250A128A150530F200003030
:10116200F300831203136708013EF40000300318F2
:101172000130F5000A128A1507200A128A15720830
:1011820083120313A5002507B83E840083130008C9
:10119200A000840A00088403A1009230A2000A166B
:1011A2008A116B250A128A150530F2000030F3000D
:1011B200831203136708023EF40000300318013063
:1011C200F5000A128A1507200A128A15720883127C
:1011D2000313A5002507B83E840083130008A0006E
:1011E200840A00088403A100D230A2000A168A11E0
:1011F2006B250A128A1508000030831203134C056E
:10120200D40000304D05D50080304E05D6007F3029
:101212004F05D7005708560455045404031D1229DC
:1012220013291B290030CF000030CE000030CD0042
:101232000030CC0000305005D40000305105D500FC
:1012420080305205D6007F305305D7005708560428
:1012520055045404031D2E292F2937290030D300A9
:101262000030D2000030D1000030D000CF1F3A2928
:101272003B295F290030D4000030D5000030D60071
:101282008030D7004C08D4024D08031C4D0F4A2968
:101292004B29D5024E08031C4E0F50295129D60264
:1012A2004F08031C4F0F56295729D7025708CF0062
:1012B2005608CE005508CD005408CC00D31F622931
:1012C200632987290030D4000030D5000030D600D1
:1012D2008030D7005008D4025108031C510F7229E4
:1012E2007329D5025208031C520F78297929D60294
:1012F2005308031C530F7E297F29D7025708D300B6
:101302005608D2005508D1005408D0008030CF06CC
:101312008030D30653084F02031D992952084E020A
:10132200031D992951084D02031D992950084C02A9
:1013320003189C299D299F290310A0290314080042
:1013420083120313A40024080319A829A929BD297B
:10135200F51FAC29AD29BD297209A6007309A700A2
:101362007409A8007509A900A60A0319A70A031996
:10137200A80A0319A90AC5297508A9007408A800B2
:101382007308A7007208A600750874047304720437
:10139200031DCC29CD29D6290030F5000030F400F8
:1013A2000030F3000030F200562A9630A500E429FE
:1013B2000130A50701300310A90CA80CA70CA60C3C
:1013C200FF3E031DDC29FE302905031DE929EA2918
:1013D200D929042A0130A5070130A60700300318D5
:1013E2000130A707003003180130A80700300318A6
:1013F2000130A90701300310A90CA80CA70CA60CF8
:10140200FF3E031DFC29FF302905031D092A0A2A74
:10141200EB29162A0130A5020130A0000310A60D07
:10142200A70DA80DA90DA00B0F2AA81B192A1A2A6D
:10143200202A0230250203181F2A202A0B2A2518E7
:10144200232A242A2C2AFF30A605FF30A7057F3045
:10145200A805FF30A9050310A50C2508A000A101CD
:10146200A201A30118300310A00DA10DA20DA30D1E
:10147200FF3E031D342A2008A6042108A7042208DF
:10148200A8042308A90424080319482A492A4E2A31
:10149200F51F4C2A4D2A4E2AA9172908F5002808BB
:1014A200F4002708F3002608F20008008312031351
:1014B200E901EA01012B2130EA00242B2930EA005C
:1014C200242B2D30EA00242B6708003A03195F2AE7
:1014D200013A03195C2A033A03195F2A013A0319F4
:1014E200622A073A0319622A242B1A30EA00242BB3
:1014F2001F30EA00242B6708003A0319762A013AC2
:101502000319762A033A0319762A013A0319792A2A
:10151200073A0319792A242B2B30EA00242B323084
:10152200EA00242B3930EA00242B6708003A031919
:10153200902A013A03198D2A033A0319902A013A93
:101542000319932A073A0319932A242B0130E9003D
:101552001030EA00242B0130E9002430EA00242B69
:101562002430EA00242B6708003A0319792A013A49
:101572000319792A033A0319792A013A0319B12A7C
:10158200073A0319B12A242B2E30EA00242B3530D6
:10159200EA00242B6708003A0319C82A013A031902
:1015A200C52A033A0319C82A013A0319932A073AAA
:1015B2000319932A242B1230EA00242B1430EA0058
:1015C200242B6708013A0319DC2ADF2A0630EA00D5
:1015D200242B1030EA00242B1530EA00242B670854
:1015E200003A0319ED2A013A0319EA2A033A0319C8
:1015F200ED2A013A0319762A073A0319762A242B8F
:101602006808003A0319652A013A03197C2A033A49
:101612000319962A013A0319A72A073A0319AC2A91
:10162200013A0319B42A023A0319CB2A0F3A0319D1
:10163200E22A013A0319E72A033A0319F02A013A86
:101642000319902A242B080083120313A7001130D8
:101652006B06031D2D2B2E2B372B0A168A116424A1
:101662000A128A15FF3083120313EB003730270664
:10167200031D3C2B3D2B4F2B0A168A1164240A12A0
:101682008A15013083120313E8070C306806031D24
:101692004B2B4C2B4D2BE8011130EB003430A000CA
:1016A2009030A1008030A2000A168A116B250A121E
:1016B2008A15C030F8002A300A168A1188240A12C4
:1016C2008A150A308312031368020318692B6A2BE6
:1016D200CC2B6808A5002507A03E840083130008D0
:1016E200A000840A00088403A100C130A2000A16E7
:1016F2008A116B250A128A150C30F2000030F300B1
:10170200831203136808013EF4000030031801300D
:10171200F5000A128A1507200A128A157208831226
:101722000313A5002507A03E840083130008A00030
:10173200840A00088403A1009130A2000A168A11CB
:101742006B250A128A150C30F2000030F300831266
:1017520003136808023EF400003003180130F5005C
:101762000A128A1507200A128A15720883120313B5
:10177200A5002507A03E840083130008A000840A68
:1017820000088403A100D130A2000A168A116B2539
:101792000A128A154B2C0A306806031DD12BD22B54
:1017A2000C2C83160313340883120313A000831630
:1017B2000313350883120313A100C130A2000A16D5
:1017C2008A116B250A128A158316031336088312AF
:1017D2000313A00083160313370883120313A10017
:1017E2009130A2000A168A116B250A128A158316F5
:1017F2000313200883120313A00083160313210886
:1018020083120313A100D130A2000A168A116B259C
:101812000A128A154B2C0B306806031D112C122C50
:101822004B2C83160313360883120313A00083166E
:101832000313370883120313A100C130A2000A1652
:101842008A116B250A128A15831603132008831244
:101852000313A00083160313210883120313A100AC
:101862009130A2000A168A116B250A128A15831674
:101872000313220883120313A00083160313230801
:1018820083120313A100D130A2000A168A116B251C
:101892000A128A1508000A168A119D240A128A154C
:1018A200723083120313A0009030A1008130A20095
:1018B2000A168A116B250A128A151930831203132C
:1018C200A0009130A100C530A2000A168A116B2532
:1018D2000A128A15443083120313A0009030A1002B
:1018E2009130A2000A168A116B250A128A15C12CA0
:1018F200003083160313CF000030CE000B30CD0032
:10190200B830CC00013083120313DF000030E00056
:101912000030E1000030E2005F0883160313CC02BE
:10192200831203136008031C600F982C9B2C8316F0
:101932000313CD02831203136108031C610FA22C4F
:10194200A52C83160313CE02831203136208031C11
:10195200620FAC2CAF2C83160313CF028312031336
:10196200831603134C0A031DC02C4D0A031DC02C01
:101972004E0A031DC02C4F0A031DC02CC12C832C00
:1019820001300A168A119E250A128A152F3A031D62
:10199200CB2CCC2C792C0A168A1164240A128A15B3
:1019A2000A168A11FB260A128A1501300A168A11B2
:1019B2009E250A128A1583160313D200B830D0006E
:1019C2000B30D1000130D0020030031CD103D10210
:1019D200500A031DF02C510A031DF02CF12CE32CAC
:1019E20099305206031DF62CF72C032D8312031394
:1019F2006C03031DFD2CFE2C032D0230EC00223063
:101A0200EB00942D9930831603135206031D0A2D01
:101A12000B2D472D0230831203136C06031D122D6A
:101A2200132D472D0330EC000A168A1164240A1282
:101A32008A158D3083120313A0009030A1008030EC
:101A4200A2000A168A116B250A128A15D330831254
:101A52000313A0009030A100C030A2000A168A1120
:101A62006B250A128A15063083120313A0009130E7
:101A7200A1009030A2000A168A116B250A128A155B
:101A82000A128A1557220A128A15942D2F308316AC
:101A920003135206031D4E2D4F2D5C2D443083122D
:101AA20003136C06031D562D572D5C2D0430EC00DC
:101AB20012150715942D942D8316031352080A123A
:101AC2008A1525230A128A15D62C83160313520867
:101AD2000A128A155E200A128A15D62C2F30831616
:101AE20003135206031D762D772D7E2D04308312AB
:101AF2000313EC003330EB00D62C1F305206031DCB
:101B0200832D842DA42D013083120313EC00113098
:101B1200EB00D62C8316031352080A128A115020A6
:101B22000A128A15D62C831203136C08013A031980
:101B32005D2D033A0319662D013A03196F2D073AF9
:101B420003198B2DD62CD62C0A128A110C2883123B
:101B520003132308F2008030F2052308A8002807A7
:101B6200F400A21FB52DB62DB72D741474080319F5
:101B7200BB2DBC2DCC2D740A031DC02DC12DC92D2A
:101B82000030A3000030A2000030A1000030A0000D
:101B9200A217A301D42D0030A3000030A200003010
:101BA200A1000030A0002708F3008030F30573087D
:101BB20072060319DD2DDE2DDF2D72172708A8000E
:101BC2002807F300A61FE62DE72DE82D73147308EE
:101BD2000319EC2DED2DFD2D730A031DF12DF22DB0
:101BE200FA2D0030A7000030A6000030A50000301A
:101BF200A400A617A701052E0030A7000030A600FA
:101C02000030A5000030A4007408730203180A2EE5
:101C12000B2E2F2E721F0E2E0F2E112E8030F2063B
:101C22007408F5007308F4007508F3002008F50045
:101C32002408A0007508A4002108F5002508A100C9
:101C42007508A5002208F5002608A2007508A6005E
:101C52002308F5002708A3007508A700F5017308FB
:101C6200A800A9012908AB0074082802AA00031CD5
:101C7200AB032B08803AFF0080307F02031D432E06
:101C82001A302A02031C462E472E802E831203137B
:101C92002308220421042004031D502E522E013059
:101CA200532E0030F5000030A3000030A2000030B7
:101CB200A1000030A0007308F400862E751C622E6D
:101CC200632E6C2E750883120313A8000310280CD0
:101CD2000138F5006E2E0310F50C83120313201C3D
:101CE200732E742E752EF5170130A800230DA30C48
:101CF200A20CA10CA00CA80B772E0130F4077308DC
:101D02007402031C852E862E5F2E721B892E8A2E4C
:101D1200D52E7408031D8E2E8F2E9A2E003083121C
:101D22000313A3000030A2000030A1000030A00085
:101D3200FF2F831203132408A00725080311031899
:101D4200013E0319A52EA107260803110318013E1F
:101D52000319AC2EA207270803110318013E031929
:101D6200B32EA307231CB62EB72E8B2F751CBA2EAB
:101D7200BB2EC22E7508A8000310280C0138F500EE
:101D8200C42E0310F50C201CC72EC82EC92EF51721
:101D92000130A800230DA30CA20CA10CA00CA80BCF
:101DA200CB2E0130F4078B2F831203132308803AC2
:101DB200FF002708803A7F02031DE92E260822022F
:101DC200031DE92E25082102031DE92E2408200205
:101DD2000318EC2EED2E442FFF30A800FF30A9008F
:101DE200FF30AA00FF30AB002408AC002508AD008C
:101DF2002608AE002708AF002008AC022108031C09
:101E0200210F042F052FAD022208031C220F0A2FD7
:101E12000B2FAE022308031C230F102F112FAF022A
:101E22002C08A8072D0803182D0F182F192FA90702
:101E32002E0803182E0F1E2F1F2FAA072F08031874
:101E42002F0AAB072B08A3002A08A2002908A10029
:101E52002808A0008030F2067503FF3AF5007508E5
:101E6200031D342F352F522F0130A00700300318E5
:101E72000130A107003003180130A2070030031817
:101E82000130A307522F2408A0022508031C250FA6
:101E9200A1022608031C260FA2022708031C270FF3
:101EA200A3022308220421042004031D592F5A2FC0
:101EB200872F7508031D5E2F5F2F872F0030A30029
:101EC2000030A2000030A1000030A000FF2F01303E
:101ED200A8000310A00DA10DA20DA30DA80B6A2F3F
:101EE200F51F742F752F762F2014751C792F7A2FDA
:101EF2007E2F0314750DF500802F0310F50D740865
:101F02000319842F852F872F0130F402A21F8A2FF5
:101F12008B2F682FF301F51F8F2F902F9E2F75089F
:101F22007F390319952F962F992F0130F3009E2F99
:101F3200201C9C2F9D2F9E2F962F73080319A22FD2
:101F4200A32FD52F0130A007003003180130A107BD
:101F5200003003180130A207003003180130A30734
:101F6200231CB42FB52FD52F2008A8002108A900C3
:101F72002208AA002308AB000130AC002B0DAB0CE9
:101F8200AA0CA90CA80CAC0BBF2F2B08A3002A0883
:101F9200A2002908A1002808A000740A0319D22F60
:101FA200D32FD52F0130F407740A0319D92FDA2F52
:101FB200DF2F7408031DDE2FDF2FED2F0030A3006B
:101FC2000030A2000030A1000030A0007408031D00
:101FD200EB2FEC2FED2FF201741CF02FF12FF32FCA
:101FE200A217F52F7F30A2057408A8000310280C51
:101FF200A300F21FFD2FFE2FFF2FA317080050345E
:1020020072346F346734723461346D342034633423
:102012006F346D3470346C346534743465346434C4
:10202200003450346C346534613473346534203494
:1020320063346C346F3473346534203464346F34F5
:102042006F347234003435343A34533454344134B6
:1020520052345434203436343A34503441345534C2
:10206200533445340034573461347334683469343A
:102072006E3467342034503472346F3467347234BF
:1020820061346D34003457346134733468346934E4
:102092006E34673420344D346134633468346934C7
:1020A2006E346534003444344F344F345234203467
:1020B2004934533420344F34503445344E3445344B
:1020C20044340034523465346D346F3476346534BC
:1020D200203463346C346F3474346834653473344C
:1020E20000345034723465347334733420346B34B6
:1020F200653479343534203474346F3400345734D1
:10210200413454344534523420344C3445345634FA
:1021120045344C343A3400345034723465347334B8
:102122007334203453347734693474346334683408
:10213200003450346F3477346534723469346E3419
:10214200673420346F346E340034453463346F3472
:10215200203463346F34743474346F346E347334B3
:10216200003441347134753461342034533474345E
:102172006F347234653400345334743461346934E6
:102182006E3420345734613473346834003442344A
:1021920065346434203453346834653465347434BB
:1021A200733400345334573435343A34203453348E
:1021B20054344134523454340034463475346E3419
:1021C2006334743469346F346E343A3400344434D2
:1021D200653464346934633461347434653473341B
:1021E2000034573461347334683420344F346E34DD
:1021F2006C3479340034523469346E347334653457
:102202002B344434723479340034533457343634F2
:102212003A342034533454344F3450340034443438
:102222007234793420344F346E346C34793400345F
:1022320050346F3477346534723420344F346E3412
:10224200003477346F346F346C3465346E347334E5
:1022520000344D3465346434693475346D3400347B
:102262005734683469347434653473340034533405
:10227200703469346E3420340034543469346D342B
:1022820065343A340034503472346F3467343A343B
:102292000034523469346E34733465340034443457
:1022A200613469346C3479340034483465346134CF
:1022B200763479340034543469346D3465340034FE
:1022C20048346934673468340034773461347334A1
:1022D200683400344134753474346F3400344C340F
:0E22E2006F34773400344D3461347834003476
:102898001134013401340134FA30831603139200E1
:1028A8008C14831203131211080083160313880172
:1028B800091189100A168A113F260A168A1108007A
:1028C800F20101300A168A11B7240A168A11043057
:1028D800F7003D30F600F60B6F2CF70B6F2C742CBD
:1028E80008007E088A007F0882000A168A1175246B
:1028F8000A168A118000840A04087D060319003428
:10290800FF0A0319FE0A792C83120313A400F201AB
:1029180078080A168A11B7240A168A11F201F20AEF
:102928008312031324080A168A11B7240A168A1177
:1029380008000A168A1159240A168A110A128A15D9
:1029480001200A168A110A168A1150240A168A11B9
:102958008B170B17831603138710071183120313A2
:10296800871007110800F5007218BB2CBF2C8312C2
:1029780003130915C22C8312031309117508880063
:102988008914A630F300F30BC72C0000831203133D
:1029980089101B30F4009E30F300F30BD12CF40B9C
:1029A800D12C000008005034913456349134E83466
:1029B800903431349134BD349034A6349034223478
:1029C8009134C8349034FC34903410349134F23457
:1029D8009034B23490346B349134703491342A3456
:1029E80091346134913474349134803083120313F8
:1029F800C7064B08A3004A08A2004908A1004808D6
:102A0800A0004708A7004608A6004508A5004408F6
:102A1800A4000A128A15A8250A168A11831203131C
:102A28002308C7002208C6002108C5002008C400E2
:102A38000800F601F701721C222D232D292D740898
:102A4800F6070318F70A7508F70701300310F40DA5
:102A5800F50DFF3E031D2A2D01300310F30CF20C77
:102A6800FF3E031D312D72087304031D3C2D3D2DBF
:102A78001F2D7708F3007608F2000800831203136D
:102A8800A400A001A1017208F400F5017408A200D5
:102A98007508A300241C512D522D582D2208A0077B
:102AA8000318A10A2308A10701300310A20DA30DE2
:102AB800FF3E031D592D0310A40C2408031D652D8A
:102AC800662D4E2D2108F3002008F2000800F201BF
:102AD8008312031322080A168A11B7240A168A11C8
:102AE8008D2DF201F20A2108FF00200884000A1245
:102AF8008A11EE270A168A110A168A11B7240A16AD
:102B08008A11013083120313A0070318A10A0030A9
:102B1800A107831203132108FF00200884000A126A
:102B28008A11EE270A168A11003A031D9C2D9D2D45
:102B3800752D0800831203130608F2003F30F205D2
:102B48003F3072060319A92DAA2DB42D7A0803194E
:102B5800AE2DAF2DB42DFA01F9017208FB00EC2D52
:102B68003F307206031DB92DBA2DC92D7A08031DF1
:102B7800BE2DBF2DC92D0130FA000F307902031880
:102B8800C62DC72DEC2D7B08ED2D7A08031DCD2D04
:102B9800CE2DD72D103079020318D32DD42DD72D53
:102BA8000130F907EC2D7A08031DDB2DDC2DEC2D07
:102BB80010307906031DE12DE22DEC2D3730720619
:102BC800031DE72DE82DEC2D0130F9079930ED2D87
:102BD8003F300800831203138C1CF32DF42D382E7C
:102BE800013083160313C207003003180130C307EE
:102BF800003003180130C407003003180130C5073E
:102C0800203042064E300319430644044504031D90
:102C18000E2E0F2E352E831203136A080319152E54
:102C2800162E192E0130EA02272E6A08031D1D2EC2
:102C38001E2E272E69080319222E232E272E013037
:102C4800E9023C30EA00003083160313C500003067
:102C5800C4000030C3000030C20083120313080907
:102C68008800831203138C1071088A00700E830089
:102C7800FE0E7E0E0900C330F700CD30F600F60BCD
:102C8800432EF70B432EF20133300A168A11B7246C
:102C98000A168A111B30F7009E30F600F60B522EEA
:102CA800F70B522E0000F20133300A168A11B724AE
:102CB8000A168A11A630F600F60B602E0000F20103
:102CC80033300A168A11B7240A168A116B2E6C2E15
:102CD8000000F2013C300A168A11B7240A168A113C
:102CE800A630F600F60B762E0000F20101300A1627
:102CF8008A11B7240A168A110430F7003D30F6000D
:102D0800F60B842EF70B842E892EF2010C300A164E
:102D18008A11B7240A168A11A630F600F60B922EED
:102D28000000080083120313A101F31F9C2E9D2E9F
:102D3800A42EF209F309F20A0319F30A0130A100DB
:102D4800F51FA72EA82EAF2EF409F509F40A0319CA
:102D5800F50A0130A106A201A30172087304031940
:102D6800B62EB72EEC2E0130A000C32E0130031072
:102D7800F20DF30DFF3E031DBB2E0130A007F31F1C
:102D8800C62EC72EBA2E01300310A20DA30DFF3E8A
:102D9800031DC82E73087502031DD42E7208740211
:102DA800031CD72ED82EDF2E7208F4027308031CDA
:102DB800F503F502221401300310F30CF20CFF3E68
:102DC800031DE02E0130A002031DEB2EEC2EC72EB2
:102DD80021080319F02EF12EF62EA209A309A20A42
:102DE8000319A30A2308F3002208F200080083123B
:102DF8000313A8012808803EF800FF300A168A113C
:102E080088240A168A11033083120313A7008A3014
:102E1800A6005530A500A50B0F2FA60B0F2FA70B4B
:102E28000F2F013083120313A80710302802031C48
:102E38001E2F1F2FFE2E9A30A0009030A100C13007
:102E4800A2000A168A116B250A168A1144308312C9
:102E58000313A0009030A1009130A2000A168A1135
:102E68006B250A168A1183120313A9012908D03E7B
:102E7800F800FF300A168A1188240A168A110330CE
:102E880083120313A7008A30A6005530A500A50BAE
:102E98004B2FA60B4B2FA70B4B2F0130831203137D
:102EA800A90710302902031C5A2F5B2F3A2F333001
:102EB80083120313A700BB30A600DF30A500A50BC3
:102EC800632FA60B632FA70B632F0800831203132E
:102ED80006186F2F702FFF2F023083120313A500DF
:102EE8004530A400A930A300A30B782FA40B782F9A
:102EF800A50B782F831203130618832F842FFF2F17
:102F0800071112110A168A1164240A168A115430FC
:102F180083120313A0009030A1008030A2000A168B
:102F28008A116B250A168A11123083120313A00026
:102F38009030A100C030A2000A168A116B250A162B
:102F48008A1183120313A601A701CA2F0330831223
:102F58000313A5008A30A4005530A300A30BB22F99
:102F6800A40BB22FA50BB22F013083120313A607AF
:102F78000318A70A0030A7070030270214300319E6
:102F88002602031CC82FC92FCA2F8714061CCD2F51
:102F9800CE2FAA2F87100A168A1164240A168A11BE
:102FA800DE3083120313A0009030A1008030A2000D
:102FB8000A168A116B250A168A115C3083120313CC
:102FC800A0009130A100C030A2000A168A116B251A
:102FD8000A168A11243083120313A0009030A1002E
:102FE8009030A2000A168A116B250A168A118312DC
:082FF800031307111215080074
:02400E00FB3F76
:00000001FF
